:020000040000FA
:10000000301800207925000081250000D103000070
:1000100085250000872500008925000000000000DC
:100020000000000000000000000000005D03000070
:100030008D2500000000000085030000210700005E
:1000400093250000952500009725000099250000C4
:100050009B2500009D2500009F250000A125000094
:10006000A3250000A5250000A7250000A925000064
:10007000AB250000AD250000AF250000B125000034
:10008000B3250000B5250000B7250000B925000004
:10009000BB250000BD250000BF250000C1250000D4
:1000A000C3250000C5250000C7250000C9250000A4
:1000B000CB250000CD250000CF250000D125000074
:1000C000D3250000D5250000D7250000D925000044
:1000D000DB250000DD250000DF250000E125000014
:1000E000E3250000E525000000000000E7250000F2
:1000F000E9250000EB250000ED250000EF250000BC
:10010000F1250000F3250000F5250000F72500008B
:100110000000000000000000F9250000FB250000A1
:10012000FD250000FF250000012600000326000039
:100130000526000007260000092600000B26000007
:1001400000000000000000000000000000000000AF
:100150000D2600000F2600001126000013260000C7
:10016000000000000000000000000000000000008F
:10017000000000000000000000000000000000007F
:10018000000000000000000000000000000000006F
:10019000000000000000000000000000000000005F
:1001A000000000000000000000000000000000004F
:1001B0001526000017260000192600001B26000047
:1001C0001D2600001F260000212600002326000017
:1001D0002526000027260000292600002B260000E7
:1001E0002D2600002F260000312600000000000010
:1001F00000000000332600003526000037260000EE
:10020000392600003B26000000000000000000002E
:100210003D2600003F260000412600004326000046
:100220004526000047260000492600004B26000016
:100230004D2600004F2600005126000053260000E6
:100240005526000057260000592600005B260000B6
:100250005D2600005F260000612600006326000086
:1002600065260000672600006926000000F002F8FD
:1002700000F064F80AA090E8000C82448344AAF1DC
:100280000107DA4501D100F059F8AFF2090EBAE8DA
:100290000F0013F0010F18BFFB1A43F001031847BA
:1002A0005C2900007C2900000A444FF0000C10F883
:1002B000013B13F0070408BF10F8014B1D1108BFE4
:1002C00010F8015B641E05D010F8016B641E01F884
:1002D000016BF9D113F0080F1EBF10F8014BAD1CD4
:1002E0000C1B09D16D1E58BF01F801CBFAD505E0F2
:1002F00014F8016B01F8016B6D1EF9D59142D6D34C
:10030000704700000023002400250026103A28BF73
:1003100078C1FBD8520728BF30C148BF0B60704777
:10032000642902F09582732902F0A18300207047AE
:100330001FB502F023FC1FBD10B510BD02F0EEFB8F
:100340001146FFF7F5FF01F071FC02F00CFC03B45D
:10035000FFF7F2FF03BC00F06FF8000072B61EF06A
:10036000040F0CBFEFF30880EFF309800449C1F8D4
:1003700000E000F07AF90249D1F800E062B6704777
:100380001C00002072B6EFF309801EF0100F08BFAA
:1003900020ED108A7246EFF3148320E9FC0F0A491E
:1003A0000A681060094C24680C602068B0E8FC0FF3
:1003B000964683F314881EF0100F08BFB0EC108A25
:1003C00080F3098862B670471800002034000020CE
:1003D0001EF0040F0CBFEFF30880EFF3098000F06C
:1003E000C1B9000010B50446144804701448012136
:1003F00042691248904710BD10B54FF080704069B7
:10040000816B10488847C0B210BD70B504460D46D8
:10041000E0B2FFF7E7FF204670BD10B50446FFF7D6
:10042000EBFF10BD01464FF0FF30704710B504469A
:10043000E0B2FFF7D7FF10BD00BFFEE708000020C5
:10044000C42B000000C000403048006840F020008D
:100450002E4908602E48006840F00E002C490860C4
:100460002C48006840F00E002A4908607047014699
:1004700021B1012904D0022906D103E0022003E0C2
:10048000082001E0042000BF00BF72B6204A121FFE
:1004900012684240204BC3F8FC2362B67047014605
:1004A00021B1012904D0022906D103E0022003E092
:1004B000082001E0042000BF00BF154A121F126887
:1004C0004240154BC3F8FC237047002005E0134958
:1004D0000968491C114A1160401C11498842F6D331
:1004E000704710B50F488168204688470D4801695C
:1004F000022088470B484FF4E131826A012090477F
:1005000008480121826A1520904710BD08E60F4077
:10051000005402401C550240005002400C000020D4
:1005200055581400C42B0000244800687047234825
:100530000068401C402801D1012070471F48006816
:10054000401C1E4908600020F7E71C48006808B9F5
:100550000120704719480068401E184908600020B3
:10056000F7E710B50446204602F0D2F93D2801D93C
:10057000012010BD1249114A126801EB8210214678
:1005800002F0A2F9FFF7D3FF08B10120F1E7002044
:10059000EFE710B500240CE0094800EB841109A036
:1005A00002F0ECF8064901EB8410402102F0CFF98B
:1005B000641CFFF7CAFF0028EED010BD1000002019
:1005C000D401002025730A0D0000000010B500289A
:1005D00007DA4A07140E644A00F00F031B1FD454B5
:1005E00003E04A07130E614A135410BD002060490E
:1005F000086062B6704701205D49086072B67047B6
:1006000010B5FFF7F8FF5848001F006840F400706D
:100610005549091F08604FF08071896F086980474C
:10062000FFF7E4FF00F01EFC08B100BFFEE700206A
:1006300010BD01204F49086000DF002070474D4881
:10064000006870474C480068704701DF704710B57C
:100650000446204602DF10BD43481438006840F0CD
:100660008050414914390860704770B50546A86943
:1006700010F8026C01203E49086026B1012E3AD0E4
:10068000022E46D142E03D4800683D4908600846D8
:100690000068006800683B490860394909680968D2
:1006A00001F1280080F3098800BFFF216FF00100ED
:1006B000FFF78CFF4FF47A54601EB0F1807F01D3B6
:1006C00001200FE0601E4FF0E021486107214FF04C
:1006D000FF30FFF77BFF00204FF0E021886107200B
:1006E0000861002000B100BE032080F3148800BF21
:1006F000BFF36F8F0FE022480068204909688842E5
:1007000001D0FFF7A9FFBFF36F8F04E0BFF36F8F36
:1007100001E000BE00BF00BF00201549086070BDA9
:1007200010B5FFF768FF14480068401C12490860C4
:1007300015480068401C14490860A0F23A7010B1D6
:1007400096280BD103E00220FFF7A9FE06E0002067
:100750000D4908600220FFF7A2FE00BF00BFFFF7AF
:1007600045FF10BD00BE704718ED00E000E400E05A
:10077000240000202000002014000020340000206D
:10078000180000201C0000202800002001465548C9
:1007900008E0026852694B699A4200DC05E0026891
:1007A00002F11C000268002AF3D100BF0268CA618E
:1007B00001604D4A1268521C4B4B1A60704730B5AD
:1007C00004460D460CB9002030BDA06810F1030F9F
:1007D00002DBA068032801DD0020F5E7434800683C
:1007E000A06143480068401C41490860A0686061FE
:1007F000002084F83800206220636063E062E061DA
:10080000E1682068084448382060D4E90010086492
:100810004FF08070216848646FF002002168086022
:100820000320216848602046FFF7B0FF2046CBE751
:100830002C4805E000B100E000BF016801F11C0098
:1008400001680029F6D170470146264806E0026893
:100850008A4200D105E0026802F11C000268002A09
:10086000F5D100BF026842B1CA6902600022CA61C4
:100870001D4A1268521E1C4B1A6070471D480068C2
:10088000704701460020704710B5FFF7DEFE0020DC
:1008900010BD70B504460D460CB9862070BD65616B
:1008A00094F8380040B92046FFF7CEFF2046FFF706
:1008B0006DFFFFF7CAFE0BE094F83800012807D15E
:1008C0002146206A00F048F82146206A00F02CF802
:1008D0000020E3E7014609B9842070474869FCE736
:1008E0007047000034000020380000202C00002059
:1008F0003000002018000020FA48006818B1F948BC
:100900000068806970476FF00200FBE70146084607
:1009100006E0026802B100E000BF026802F12800B0
:100920000268002AF5D1704710B50246104608E06B
:1009300003685B694C69A34200DC05E0036803F1CE
:1009400028000368002BF3D100BF03688B620160AD
:1009500053685B1C536010BD10B50246104606E09C
:1009600003688B4200D105E0036803F128000368A7
:10097000002BF5D100BF03682BB18B6A0468A3621A
:1009800053685B1E536010BD0146086808B900201B
:1009900070470A68906A0860002090624868401EAC
:1009A00048601046F4E710B500230360436003621B
:1009B000036181608261CC4B1B68C360CA4B1860C5
:1009C000CA4B1B685B1CC94C236010BD024600214A
:1009D000C448006808B900207047C248016804E0B4
:1009E000914201D10120F7E709690029F8D10020DF
:1009F000F2E710B5034600241846FFF7E7FF08B1F9
:100A0000002010BDB7480068F0B1B6499869096880
:100A10008969884205DBB34800681861B148036002
:100A200018E0B048046809E098692169896988423A
:100A300003DB20691861236103E024692069002831
:100A4000F2D100BF236105E0A64803600020A5495C
:100A5000096808610120D4E710B503461846FFF77E
:100A6000B5FF08B9002010BD9E48006883420BD135
:100A7000186918B19B491869086002E0002099497B
:100A800008600020186114E0964804680DE02069B1
:100A9000984209D1186910B11869206101E000205D
:100AA00020610020186103E0246920690028EED14C
:100AB00000BF0120D7E710B50246486A08B94A626C
:100AC00019E0486A80699469A04203DA486A506173
:100AD0004A6210E04B6A09E0586980699469A04253
:100AE00003DA586950615A6103E05B69586900286C
:100AF000F2D100BF5A61012010BD03460A46506A78
:100B000098420CD1506A406918B1506A40695062ED
:100B100001E0002050620020586101207047516AB6
:100B200010E0486998420CD14869406918B1486999
:100B30004069486101E000204861002058610120BF
:100B4000ECE749690029ECD10020E7E7F0B504465D
:100B50000D4616461F460CB98020F0BD0DB9802009
:100B6000FBE7256221462846FFF7DEFE0020F4E77A
:100B70002DE9F04104460E4600BF0027B846FFF7B6
:100B80007DFE054614B9781EBDE8F081701C10B1D9
:100B90004FF0FF30F8E7A068002870DD514800688A
:100BA00000285AD04F49686909688969884208DA7B
:100BB000686AB8B14B4800688069696A8969884287
:100BC00010D12046FFF715FF29462046FFF773FF97
:100BD000E5610120206268692861A068401EA0606C
:100BE0000120D1E73F480068C069406969698842CF
:100BF0000EDA3C4968690968C96948613949096878
:100C0000C869FFF721FE37490968C869FFF7BEFDCB
:100C1000012085F8380036480068FFF715FE4FF0D0
:100C2000FF331A4621462846FFF790FF10B14FF0D8
:100C3000FF30A9E7FFF709FD2046FFF7DAFE294656
:100C40002046FFF738FFE5610120206268692861CE
:100C5000A068401EA060012096E72046FFF7C9FE6D
:100C600029462046FFF727FFE561012020626869D9
:100C70002861A068401EA060012085E7FFE7E069C9
:100C800040696969884208DA6869E1694861E06930
:100C9000FFF7DAFDE069FFF779FD012085F83800FC
:100CA00013480068FFF7D0FD4FF0FF331A46214686
:100CB0002846FFF74BFF10B14FF0FF3064E7FFF716
:100CC000C4FC2046FFF795FE29462046FFF7F3FEB9
:100CD000E5610120206268692861A068401EA0606B
:100CE000012051E7440000203C000020400000208B
:100CF0001800002070B50446FFF7C0FD05460CB98A
:100D0000802070BD0120A06000202062E0612046AC
:100D1000FFF7A2FE29462046FFF7EFFE286968612B
:100D20002846FFF791FD2846FFF730FD606808B9B7
:100D30000020E6E72046FFF727FE0646002086F85B
:100D400038003046FFF722FDFFF77FFC0020D8E790
:100D50002DE9F84F044689464FF47A70A9FB0050FC
:100D600006464FF0000A00200090FFF787FD8346FB
:100D70001CB94FF0FF30BDE8F88F09F1010010B148
:100D80004FF0FF30F7E7A068401EA060002801DBAD
:100D9000A068F0E7B9F1000F02D14FF0FF30EAE7A9
:100DA00001208BF838002D480068FFF74DFDB9F1A0
:100DB000FF3F0AD14FF0FF331A4621465846FFF74E
:100DC000C5FEF8B14FF0FF30D5E74FF47A7100223D
:100DD000A5FB017306FB013105FB0211204A00232C
:100DE000384601F054FC8246FFF72CFC504400903A
:100DF000534621465846009AFFF7A8FE10B14FF01F
:100E0000FF30B8E7FFF721FCA068002801DA0020D6
:100E1000B1E7A068AFE770B504460CB9802070BD9B
:100E2000A068401CA060606808B90020F7E7204671
:100E3000FFF7AAFD0546002085F838002846FFF791
:100E4000A5FCFFF702FC0020E9E7014600207047FF
:100E5000024600207047034600207047180000201B
:100E600040420F0010B500210E48FFF7A8FC0E49C4
:100E700008600846006810B94FF0FF3010BD002030
:100E8000FCE704E009A001F079FC00BFFEE7F9E708
:100E900010B500F04AF80FA000F028F808B100BF24
:100EA000FEE710BD480000208400002069646C65E6
:100EB000207468726561642072756E6E696E672059
:100EC00021212120205457505631202053544F5077
:100ED000210A0D0074687265616449646C65206460
:100EE000756D7065642074726163650010B50446A9
:100EF0004FF0FF3119480068FFF72AFF401C80B10E
:100F00002046FFF72EFB08B100BFFEE7134800683C
:100F1000FFF781FF38B112A0FFF723FB18B100BF24
:100F2000FEE700BFFEE7002010BD10B54FF0FF3117
:100F30000A480068FFF70CFF401C60B1FFF729FB6F
:100F400006480068FFF767FF38B105A0FFF709FB07
:100F500018B100BFFEE700BFFEE710BD880000200B
:100F60002072656C656173652073656D3120666103
:100F7000696C000010B5012211460D48FFF713FD02
:100F80000C4908600846006810B94FF0FF3010BDEA
:100F900009A001F0F3FB0020F9E710B5054800684F
:100FA000FFF753FF10B14FF0FF3010BD0020FCE7FA
:100FB000800F0020880000206372656174656420E2
:100FC00073656D310A0D000010B5022201210D4834
:100FD000FFF7E9FC0C4908600846006810B94FF0BB
:100FE000FF3010BD09A001F0C9FB0020F9E710B5E2
:100FF00005480068FFF729FF10B14FF0FF3010BD22
:101000000020FCE7A40F00208C00002063726561C3
:101010007465642073656D320A0D000010B50021FF
:101020002E48FFF7CCFB2E4908600846006810B92F
:101030004FF0FF3010BD2BA001F0A0FB0020F9E71E
:1010400010B527480068FFF71CFC10B14FF0FF30C7
:1010500010BD0020FCE770B50646FFF70FFC044604
:1010600025A0616901F08AFB2DA001F087FB4FF0FC
:10107000FF3132480068FFF77BFD002828DB30A0F5
:10108000616901F07BFBFFF737FC0546294638A074
:1010900001F074FB40A0616901F070FB4EA0616932
:1010A00001F06CFB25480068FFF724FE56A061693B
:1010B00001F064FBFFF720FC054629462CA001F057
:1010C0005DFB6FF0020106480068FFF7E2FB04E0F9
:1010D00057A001F053FB00BFFEE770BD9000002059
:1010E000CC00002063726561746564207468726569
:1010F0006164310A0D0000005461736B20313A20A5
:1011000048656C6C6F21202E204D79207072696FBC
:10111000726974792069732025640A0D000000004B
:101120005461736B20313A204C6F636B696E67209A
:1011300053657276657220320A0D00008C00002023
:101140005461736B20313A20536572766572203298
:10115000206C6F636B6564202E204D79207072695E
:101160006F726974792069732025640A0D0000008C
:101170005468652063757272656E74207072696F51
:1011800072697479206365696C696E672069732080
:1011900025640A0D000000005461736B20313A2071
:1011A0004920616D20646F696E6720736F6D65748F
:1011B00068696E6720696E205365727665722032A9
:1011C000202E204D79207072696F726974792069C0
:1011D000732025640A0D00005461736B20313A209E
:1011E000756E6C6F636B2053657276657232202E5C
:1011F000204D79207072696F72697479206973204B
:1012000025640A0D000000005461736B20313A2000
:10121000427965627965202E204D79207072696F60
:10122000726974792069732025640A0D000000003A
:101230005461736B2031206661696C656420746F42
:10124000206C6F636B205365727665722032200AC2
:101250000D00000010B500212748FFF7B0FA27491C
:1012600008600846006810B94FF0FF3010BD24A098
:1012700001F084FA0020F9E710B520480068FFF774
:1012800000FB10B14FF0FF3010BD0020FCE770B53F
:101290000546FFF7F3FA04461EA0616901F06EFAF5
:1012A00026A001F06BFA4FF0FF312B480068FFF7E2
:1012B0005FFC00281ADB29A0616901F05FFA33A006
:1012C000616901F05BFA41A0616901F057FA2248B7
:1012D0000068FFF70FFD49A0616901F04FFA6FF058
:1012E000020106480068FFF7D4FA04E04DA001F0BF
:1012F00045FA00BFFEE770BDD00000200C010020C1
:101300006372656174656420746872656164320A31
:101310000D0000005461736B20323A2048656C6CFC
:101320006F21202E204D79207072696F7269747957
:101330002069732025640A0D000000005461736B5E
:1013400020323A204C6F636B696E6720536572766A
:10135000657220310A0D0000880000205461736B13
:1013600020323A205365727665722031206C6F63AB
:101370006B6564202E204D79207072696F726974DC
:10138000792069732025640A0D0000005461736B95
:1013900020323A204920616D20646F696E672073A6
:1013A0006F6D657468696E6720696E20536572762B
:1013B000657231202E204D79207072696F726974C8
:1013C000792069732025640A0D0000005461736B55
:1013D00020323A20756E6C6F636B205365727665B0
:1013E0007231202E204D79207072696F7269747984
:1013F0002069732025640A0D000000005461736B9E
:1014000020323A20427965427965202E204D79209C
:101410007072696F726974792069732025640A0D8E
:10142000000000005461736B2032206661696C65B6
:101430006420746F206C6F636B20536572766572E5
:101440002031200A0D00000010B500211B48FFF7D5
:10145000B6F91B4908600846006810B94FF0FF3024
:1014600010BD18A001F08AF90020F9E710B5144862
:101470000068FFF706FA10B14FF0FF3010BD0020F2
:10148000FCE770B50546FFF7F9F9044612A061695B
:1014900001F074F91AA0616901F070F9012127487F
:1014A0000068FFF7F6F926A0616901F067F96FF0AF
:1014B000020103480068FFF7ECF970BD100100203D
:1014C0004C01002063726561746564207468726504
:1014D0006164330A0D0000005461736B20333A20BD
:1014E00048656C6C6F21202E204D79207072696FD9
:1014F000726974792069732025640A0D0000000068
:101500005461736B20333A204920646F206E6F74EE
:10151000206C6F636B20616E79207265736F7572DA
:10152000636521202E204D79207072696F72697475
:10153000792069732025640A0D0000000C01002049
:101540005461736B20333A20427965427965202ECD
:10155000204D79207072696F7269747920697320E7
:1015600025640A0D0000000010B50120FEF77FFF82
:1015700010BD10B500215648FFF721F95549086004
:101580000846006810B94FF0FF3010BD52A001F0BE
:10159000F5F80020F9E710B54E480068FFF771F93B
:1015A00010B14FF0FF3010BD0020FCE770B50546CC
:1015B000FFF764F904464DA0616901F0DFF854A01B
:1015C00001F0DCF84FF0FF3158480068FFF7D0FA1F
:1015D000002832DB56A0616901F0D0F860A0616993
:1015E00001F0CCF86EA0616901F0C8F84FF0FF314E
:1015F00077480068FFF7BCFA00280BDB75A061692B
:1016000001F0BCF87FA0616901F0B8F8704800688B
:10161000FFF770FB88A0616901F0B0F843480068EB
:10162000FFF768FB91A0616901F0A8F86FF0020173
:1016300028480068FFF72DF904E096A001F09EF815
:1016400000BFFEE701219C480068FFF722F99BA03C
:1016500001F094F84FF0FF315D480068FFF778FB28
:1016600000280BDB9CA001F089F800F0A1F9FEF73F
:101670002CFF00F09DF9FEF728FF04E09DA001F08B
:101680007DF800BFFEE752480068FFF7C4FB20B1B9
:10169000A1A001F073F800BFFEE7A8A001F06EF86A
:1016A00022480068FFF7B7FB20B1ACA001F066F854
:1016B00000BFFEE7B2A001F061F8B9A001F05EF84A
:1016C0006FF0010103480068FFF7E3F870BD000008
:1016D000500100208C0100206372656174656420F4
:1016E000746872656164340A0D0000005461736BA4
:1016F00020343A2048656C6C6F212E204D79207083
:1017000072696F726974792069732025640A0D000B
:101710005461736B20343A204C6F636B696E6720A1
:1017200053657276657220320A0D00008C0000202D
:101730005461736B20343A2053657276657220329F
:10174000206C6F636B6564202E204D792070726968
:101750006F726974792069732025640A0D00000096
:101760005461736B20343A204920616D20646F69A5
:101770006E6720736F6D657468696E6720696E208F
:1017800053657276657232202E204D792070726911
:101790006F726974792069732025640A0D00000056
:1017A0005461736B20343A204C6F636B696E672011
:1017B0005365727665722031202E204D792070722B
:1017C000696F726974792069732025640A0D0000BD
:1017D000880000205461736B20343A205365727680
:1017E00065722031206C6F636B656420202E204D64
:1017F00079207072696F7269747920697320256429
:101800000A0D00005461736B20343A20756E6C6FC2
:10181000636B696E67205365727665722031202E86
:10182000204D79207072696F726974792069732014
:1018300025640A0D000000005461736B20343A20C7
:10184000756E6C6F636B696E672053657276657237
:101850002032202E204D79207072696F7269747960
:101860002069732025640A0D000000005461736B29
:1018700020343A20427965427965202E204D792026
:101880007072696F726974792069732025640A0D1A
:10189000000000005461736B2034206661696C6540
:1018A0006420746F206C6F636B2053657276657271
:1018B0002032200A0D0000004C0100205461736B9F
:1018C00020343A204C6F636B696E672053657276E3
:1018D000657220310A0D00005461736B20343A2088
:1018E0005365727665722031206C6F636B6564207E
:1018F0000A0D00005461736B2034206661696C65C9
:101900006420746F206C6F636B2053657276657210
:101910002031200A0D0000005461736B20342066D2
:1019200061696C656420746F20756E6C6F636B20E9
:101930005365727665722031200A0D005461736B15
:1019400020343A20556E6C6F636B696E6720536567
:10195000727665722031200A0D0000005461736BAD
:101960002034206661696C656420746F20756E6C2C
:101970006F636B205365727665722032200A0D000A
:101980005461736B20343A20556E6C6F636B696ED3
:1019900067205365727665722032200A0D000000C0
:1019A0005461736B20343A20427965210A0D00009E
:1019B00010B50020FEF75BFD10BD10B500213D48BD
:1019C000FEF7FDFE3C4908600846006810B94FF07C
:1019D000FF3010BD39A000F0D1FE0020F9E710B5AE
:1019E00035480068FEF74DFF10B14FF0FF3010BDD5
:1019F0000020FCE770B50546FEF740FF044634A022
:101A0000616900F0BBFEFEF777FF064631463AA05B
:101A100000F0B4FE42A000F0B1FE4FF0FF314748A5
:101A20000068FFF7A5F800283ADB45A0616900F0DF
:101A3000A5FEFEF761FF064631462FA000F09EFE90
:101A40004FF0FF314A480068FEF723FF49A0616963
:101A500000F094FE002153480068FEF71AFF45A0ED
:101A6000616900F08BFEFEF747FF0646314622A073
:101A700000F084FE02214C480068FEF70AFF3DA0FA
:101A8000616900F07BFE49A0616900F077FE2B4898
:101A90000068FFF72FF951A0616900F06FFE04E0C4
:101AA00055A000F06BFE00BFFEE75CA000F066FEF4
:101AB00070BD0000940100209001002063726561F8
:101AC00074656420746872656164350A0D000000F5
:101AD0005461736B20353A2048656C6C6F2120206F
:101AE0002E204D79207072696F7269747920697344
:101AF0002025640A0D000000546865206375727229
:101B0000656E74207072696F72697479206365699B
:101B10006C696E672069732025640A0D000000005F
:101B20005461736B20353A204C6F636B696E67208C
:101B300053657276657220310A0D0000880000201E
:101B40005461736B20353A2053657276657220318B
:101B5000206C6F636B6564202E204D792070726954
:101B60006F726974792069732025640A0D00000082
:101B70008C0100205461736B20353A204920616D3F
:101B800020696E205365727665722031202E204DBB
:101B900079207072696F7269747920697320256485
:101BA0000A0D00004C010020CC0000205461736B32
:101BB00020353A20756E6C6F636B205365727665C5
:101BC000722031202E204D79207072696F726974F5
:101BD000792069732025640A0D0000005461736B3D
:101BE00020353A204D79207072696F7269747920BE
:101BF00069732025640A0D005461736B20352066DB
:101C000061696C656420746F206C6F636B20536531
:101C1000727665722031200A0D0000005461736BEA
:101C200020353A20427965210A0D000010B5FEF7F3
:101C3000E7FCFEF756FC27A000F0A0FDFEF704FC31
:101C40002FA000F09BFD34A000F098FDFFF7B5FE3B
:101C500008B100BFFEE735A000F090FDFFF789FC5A
:101C600008B100BFFEE736A000F088FDFFF7ECFBEF
:101C700008B100BFFEE737A000F080FDFFF7EAFAE9
:101C800008B100BFFEE738A000F078FDFFF7C6F905
:101C900008B100BFFEE739A000F070FD3EA000F0E3
:101CA0006DFDFFF767F908B100BFFEE73EA000F049
:101CB00065FDFFF789F908B100BFFEE73EA000F01F
:101CC0005DFDFEF7B6FC40A000F058FD00BE002010
:101CD00010BD00000A0D526176656E4F53204465B9
:101CE0006D6F2056657273696F6E20322020284D0B
:101CF000617220312C2032303135290A0D0000006C
:101D0000496E697469616C697A696E67207468727A
:101D1000656164730A0D00006372656174696E67C2
:101D200020746872656164350A0D00006372656134
:101D300074696E6720746872656164340A0D00000E
:101D40006372656174696E6720746872656164337B
:101D50000A0D00006372656174696E6720746872B1
:101D6000656164320A0D00006372656174696E67B3
:101D700020746872656164310A0D0000496E6974EF
:101D800069616C697A696E672073656D6170686FEF
:101D90007265730A0D0000006372656174696E6795
:101DA0002073656D310A0D006372656174696E6739
:101DB0002073656D320A0D005374617274206B6577
:101DC000726E656C0A0D000054726F75626C65204E
:101DD0002D2D2072657475726E65642066726F6D4C
:101DE000206F734B65726E656C5374617274282931
:101DF0000A0D00002DE9F04104460D464FF08071B8
:101E0000496C086E804707464FF08071686A4969DF
:101E1000602322464E693946B047686B84620020D1
:101E2000BDE8F08108B5F8480068009008BD01469B
:101E30000868704770B505460C46606B90F8250041
:101E400000F0020010B14FF0FF3070BD606B90F8F1
:101E5000250000F0010008B10020F6E7606B056086
:101E6000606B406820F00100616B4860606B406807
:101E700020F00200616B4860606B406820F0040055
:101E8000616B4860606B406820F00800616B4860DF
:101E9000606B406820F01000616B4860606B4068C8
:101EA00020F02000616B4860606B406820F04000CB
:101EB000616B48600020616B81F824000021606B39
:101EC00080F820104FF080726068526C91698847EA
:101ED0004FF08072A06A526C916988474FF080720F
:101EE000A069126A916E884794F820104FF08073B1
:101EF000E0691B6A5A6D90474FF08072E068126A81
:101F0000916E8847217D4FF0807320691B6A5A6D5E
:101F100090470120616B81F82500002095E701467C
:101F2000486B90F8250000F0020010B14FF0FF3030
:101F30007047486B90F8250008B90020F8E70020AA
:101F40004A6B82F8250000BFF2E770B505460C46E3
:101F5000606B90F8250000F0010010B94FF0FF30E1
:101F600070BD606B0079C0F3400010B16FF00100EC
:101F7000F6E7606B90F8250000F0200010B16FF0DC
:101F80000100EDE725B1012D16D0022D24D116E078
:101F9000606B90F8250000F0020008B90020DFE730
:101FA0004FF08071606A49698A6C50219047012026
:101FB000616B81F8250012E06FF00300D0E7606BE1
:101FC00090F8250000F0020008B10020C8E70320C7
:101FD000616B81F8250002E06FF00300C0E700BFED
:101FE0000020BDE72DE9F04106460D46144606B136
:101FF0001DB96FF00400BDE8F081606B90F825001A
:1020000000F0040010B94FF0FF30F4E7606B90F877
:10201000250000F0200010B16FF00100EBE7606BCD
:1020200090F8250040F02000616B81F82500606B7E
:102030004661606BC5600021606BC16122E072B6D1
:10204000636BD3F81CC00CF10103676BFB61636B1E
:102050005B6913F80C104FF08073606A5B691A6853
:10206000904762B64FF08071496C086E804740F629
:10207000B831B0FBF1F74FF08070406CD0F88810A9
:10208000384688472800A5F10105D8D1606B90F843
:10209000250020F02000616B81F825000020AAE7D0
:1020A00010B5034603B111B96FF0040010BD506BB9
:1020B00090F8250000F0040010B94FF0FF30F5E76C
:1020C000506B0079C0F3400010B16FF00100EDE7F4
:1020D000506B406820F00200801C546B6060506BB5
:1020E0008160506B406820F01000546B6060506B52
:1020F000406820F02000546B6060506B406820F016
:102100000800546B6060506B406820F04000546BD6
:102110006060506B03610024506B8461506B90F8D9
:102120002400022804D0506B90F82400032800D12A
:1021300000BF9068806C0020B8E72DE9F041804630
:102140000E4617461C46B8F1000F01D006B11FB964
:102150006FF00400BDE8F081606B90F8250000F09E
:10216000040010B94FF0FF30F4E7606B90F82400E2
:10217000022804D0606B90F82400032815D10321B5
:10218000606B80F82210224639463046FFF788FF00
:1021900005460DB12846DDE7224639464046FFF7A1
:1021A00021FF054625B12846D4E74FF0FF30D1E79F
:1021B0000020CFE70146486BC06970470146486B75
:1021C000806970472DE9F04106460F461446606B62
:1021D00090F8250000F0020018B94FF0FF30BDE87C
:1021E000F081F0B215284CD010DC05282AD006DC8E
:1021F000012813D0022813D003287ED119E010281B
:1022000029D0112879D12BE0882B00001638052819
:1022100073D2DFE800F04B4D4F59610001256FE0AC
:102220002078C0F3400010B96FF00600D7E7022510
:1022300066E02078C0F3800010B96FF00600CEE7AA
:1022400003255DE02078C0F3001010B96FF00600A0
:10225000C5E7052554E0606B80F820700020BEE7DC
:102260002078C0F3001038B14FB9A068406C20F05E
:102270000200A168486402E04FF0FF30AFE70020A1
:10228000ADE747B1606B90F8250040F00800616B46
:1022900081F8250008E0606B90F8250020F0080028
:1022A000616B81F8250000BF002098E7002096E7C9
:1022B000002094E7606B90F8250020F02000616B0F
:1022C00081F8250000208AE7606B406820F002005A
:1022D000616B4860002082E7606B406820F002007C
:1022E000616B4860606B90F8250020F02000616B06
:1022F00081F82500002072E7FFE76FF003006EE72A
:1023000000BF606B0079C0F3400028B9606B90F8A3
:10231000250000F0200010B16FF001005FE7A06819
:1023200088B306F4403048B1B0F5803F07D0B0F52F
:10233000003F0FD0B0F5403F27D116E028E02078CD
:10234000C0F3C01010B148F0400802E06FF00B007D
:1023500045E71DE02088C0F3002010B148F0800858
:1023600002E06FF00B003AE712E02078C0F3C010F3
:1023700030B12088C0F3002010B148F0C00803E05D
:102380006FF00B002BE704E002E06FF00B0026E794
:1023900000BF022D01D0032D0DD106F4003010B185
:1023A0006FF00C001BE706F48020B0F5802F02D000
:1023B0006FF00D0013E721463846FFF71BFD401C68
:1023C00010B96FF007000AE7616B81F824504FF0F5
:1023D0008072606A5269D1698847606B90F8250005
:1023E00040F00400616B81F825000020F7E601460B
:1023F000486B406870470246486B90F8250000F033
:10240000040010B94FF0FF3070470020FCE708B51A
:1024100002469068D0B1506B90F8250000F004009F
:10242000A0B10B09009863F3000000904B090098DD
:1024300063F3410000908B09009863F3C3000090A0
:10244000CB09009863F3820000900FE0009820F021
:1024500001000090009820F002000090009820F009
:1024600008000090009820F004000090009808BD3B
:1024700070B504460025606B006820B11DB1606B2B
:1024800001682846884770BD08B53048FFF7CFFC83
:10249000009008BD10B504462C492046FFF7CAFC41
:1024A00010BD10B52948FFF73AFD10BD10B5044620
:1024B00026492046FFF749FD10BD70B504460D467C
:1024C000224A29462046FFF78DFD70BD70B50446AF
:1024D0000D461E4A29462046FFF7E2FD70BD70B545
:1024E00004460D461646194B324629462046FFF74C
:1024F00024FE70BD10B51548FFF75CFE10BD10B589
:102500001248FFF75BFE10BD70B504460D460F4A3A
:1025100029462046FFF756FE70BD08B50B48FFF769
:1025200066FF009008BD10B5044608492046FFF735
:1025300062FF10BD08B50548FFF769FF009008BDB0
:1025400010B50248FFF794FF10BD00008C2B00006F
:1025500006480749086070470648006840F4700064
:102560000449086001480249086070470024F400EB
:10257000D001002088ED00E03F4880473F480047F9
:10258000FEE7FEE7FEE7FEE7FEE7FEE7FEE7FEE723
:10259000FEE7FEE7FEE7FEE7FEE7FEE7FEE7FEE713
:1025A000FEE7FEE7FEE7FEE7FEE7FEE7FEE7FEE703
:1025B000FEE7FEE7FEE7FEE7FEE7FEE7FEE7FEE7F3
:1025C000FEE7FEE7FEE7FEE7FEE7FEE7FEE7FEE7E3
:1025D000FEE7FEE7FEE7FEE7FEE7FEE7FEE7FEE7D3
:1025E000FEE7FEE7FEE7FEE7FEE7FEE7FEE7FEE7C3
:1025F000FEE7FEE7FEE7FEE7FEE7FEE7FEE7FEE7B3
:10260000FEE7FEE7FEE7FEE7FEE7FEE7FEE7FEE7A2
:10261000FEE7FEE7FEE7FEE7FEE7FEE7FEE7FEE792
:10262000FEE7FEE7FEE7FEE7FEE7FEE7FEE7FEE782
:10263000FEE7FEE7FEE7FEE7FEE7FEE7FEE7FEE772
:10264000FEE7FEE7FEE7FEE7FEE7FEE7FEE7FEE762
:10265000FEE7FEE7FEE7FEE7FEE7FEE7FEE7FEE752
:10266000FEE7FEE7FEE7FEE7FEE700000448054957
:10267000034A054B70470000592500006D02000019
:10268000301600203018002030160020704753EA22
:10269000020C00F069802DE9F04B4FF00006002B92
:1026A0001FBFB3FA83F503FA05F424FA05F65E407A
:1026B00012BF1643B2FA82F502FA05F4C5F12005FD
:1026C0001EBF22FA05FC44EA0C04203556EA044CED
:1026D0004FEA144418BF641C4FF000084FF0000983
:1026E000904271EB030C39D3002919BFB1FA81F77D
:1026F00001FA07F6B0FA80F700FA07F6C7F12007EB
:102700001EBF20FA07FC46EA0C062037B6FBF4FC95
:10271000A7EB0507103F07F01F0BCBF120060CFAC3
:102720000BFB2CFA06F644BFB3460026202FA4BFAD
:102730005E464FF0000B5BEA060C08BF4FF0010B42
:1027400019EB0B09ABFB027C48EB0608C01B06FB30
:1027500002CC0BFB03CC71EB0C01C1E70B4602462C
:1027600041464846BDE8F08B13B54FF000004FF0EE
:102770000001AFF30080BDE81C4070470FB404496E
:1027800010B503AA029800F077F910BC5DF814FBAD
:10279000000000202DE9F0410E4604460020206292
:1027A0002046E168884730B3252805D0D4E90121C7
:1027B0009047206A401CF2E7E168204600278847DE
:1027C000050018D0A5F14100192802D820354FF492
:1027D00000673246294620462760FDF7A1FD40B13B
:1027E000012804D0F61D26F007060836D8E7361D66
:1027F000D6E72846DAE7206ABDE8F08170B50C46D6
:102800000546012A05D02878800600D5EA6900230C
:1028100002E0012305E05B1C934202D2E05C002849
:10282000F9D1A869E618C01AA861286A1844286274
:102830002846AFF3008004E0D5E9012114F8010B2C
:102840009047B442F8D32846AFF3008070BD000033
:102850002DE9F0410646002410687529314616A579
:1028600010D0AFF30080002802DA404213A507E041
:1028700031688A0701D512A502E0490704D511A5E0
:10288000012401E0AFF3008000210A2206F12407B1
:1028900009E0B0FBF2FCB0FBF2F302FB1C003030AD
:1028A00078541846491C0028F3D123462A4630465E
:1028B000BDE8F04100F070B8000000002D000000FD
:1028C0002B0000002000000040EA0103024630B562
:1028D0009B0710D14FF0013400E008C208C91D1B4E
:1028E0009D4315EAC41FF8D013F0FF0102F8011B45
:1028F0000DD01B0AF8E711F8013B002B02F8013B51
:1029000005D011F8013B002B02F8013BF3D130BD9B
:1029100010B5431C02E010F8011B71B18107FAD118
:102920004FF0013202C88C1A8C4314EAC211F9D05C
:10293000C01A0A0603D0C01E10BDC01A10BD0A047A
:1029400001D0801E10BD0902FCD0401E10BD4FF00A
:1029500000020429C0F0128010F0030C00F0A080E7
:10296000CCF1040CBCF1020F18BF00F8012BA8BF7A
:1029700020F8022BA1EB0C0100F092B85FEAC17CB9
:1029800024BF00F8012B00F8012B48BF00F8012BF1
:1029900070477047704770472DE9F0470D469946DC
:1029A0009246044600F124080168880604D5E069CF
:1029B00021F01001216000E00120A84201DD471B49
:1029C00000E00027A1697A1902EB0900081AA0614A
:1029D0002078C00602D42046AFF30080002608E02D
:1029E000D4E901211AF806009047206A401C761CA1
:1029F00020624E45F4DB2078C0060AD52046AFF3AE
:102A0000008006E0D4E9012130209047206A401C74
:102A10002062381EA7F10107F4DC07E0D4E90121A8
:102A200018F805009047206A401C2062281EA5F176
:102A30000105F3DC2046AFF300802078000602D5C4
:102A40000220BDE8F0870120FBE710B5436913B110
:102A5000AFF3008001E0FFF7D1FE012010BD127836
:102A600000F124010A7000224A700122EDE711688A
:102A70004FF0FF32E9E70000074B70B50D467B448D
:102A800000F039F804462846FDF7CCFC10B14FF0B1
:102A9000FF3070BD204670BD89D9FFFF4FF00002A6
:102AA00000B5134694469646203922BFA0E80C5044
:102AB000A0E80C50B1F12001BFF4F7AF090728BF1F
:102AC000A0E80C5048BF0CC05DF804EB890028BF9B
:102AD00040F8042B08BF704748BF20F8022B11F0C4
:102AE000804F18BF00F8012B7047000001694A1C95
:102AF00002610878704700B58FB0CDE9013100213F
:102B0000059105497944CDE9031011466846FFF760
:102B100041FE0FB000BD0000E5FFFFFF754600F06D
:102B200029F8AE4605006946534620F00700854661
:102B300018B020B5FFF79AFDBDE820404FF0000621
:102B40004FF000074FF000084FF0000B21F0070195
:102B5000AC46ACE8C009ACE8C009ACE8C009ACE8D8
:102B6000C0098D4670470446AFF300802046FDF74C
:102B7000EEFB000000487047D01500204FF0407079
:102B8000E1EE100A7047000001020102010400009A
:102B9000001800F000C000400104000000400040A8
:102BA00002000000010000000040004001000000A1
:102BB00000C00040000800F0050000000000000018
:102BC000A4150020251E0000892400009524000083
:102BD000A3240000AD240000BB240000CD2400008D
:102BE000DF240000F5240000FF2400000925000078
:102BF0001B25000027250000352500001C2C0000A7
:102C000000000020D4010000A8020000602C000099
:102C1000D40100205C160000040300000148135496
:102C20000E2420830E073AFDFFFFFF2C0113C80F6F
:102C30000C382057104813F4100C38208F12401B0A
:102C40002012C80A381440134C130C3820AD15401C
:102C5000411378142420F5190A32FE441324F40099
:040000050000257959
:00000001FF
